:100000000C9434000C9446000C9446000C9446006A
:100010000C9446000C9446000C9446000C94460048
:100020000C9446000C9446000C9446000C94460038
:100030000C9446000C9446000C9446000C94460028
:100040000C9446000C9446000C945E000C94460000
:100050000C9446000C9446000C9446000C94460008
:100060000C9446000C94460011241FBECFEFD8E03C
:10007000DEBFCDBF21E0A0E0B1E001C01D92A23003
:10008000B207E1F70E9448000C947B000C9400003A
:100090000E944C007894FFCF82E084B915B88EEFAF
:1000A00087B918B81092C5008FEF8093C40088E913
:1000B0008093C10086E08093C20008951F920F9242
:1000C0000FB60F9211248F939F938091C60090E0FA
:1000D0009093010180930001019731F485B1826012
:1000E00085B985B18D7F85B99F918F910F900FBE96
:0A00F0000F901F901895F894FFCFB1
:040000030000009861
:00000001FF
