:100000000C9424010C94C6060C9424070C94410112
:100010000C9441010C9441010C9441010C94410158
:100020000C9441010C9441010C9441010C943D0746
:100030000C9441010C9441010C9441010C94410138
:100040000C9441010C9441010C9441010C94410128
:100050000C9441010C940E070C9441010C94410145
:100060000C9441010C944101000000000000005F6D
:1000700000000007000700147F147F14242A7F2A41
:10008000122313086462364955225000050300000C
:10009000001C2241000041221C0014083E081408E4
:1000A000083E0808005030000008080808080060F2
:1000B00060000020100804023E5149453E00427F86
:1000C000400042615149462141454B311814127F8D
:1000D0001027454545393C4A494930017109050316
:1000E0003649494936064949291E0036360000007E
:1000F0005636000008142241001414141414004150
:100100002214080201510906324979413E7E11113B
:10011000117E7F494949363E414141227F4141227A
:100120001C7F494949417F090909013E4149497AF2
:100130007F0808087F00417F41002040413F017F48
:10014000081422417F404040407F020C027F7F0420
:1001500008107F3E4141413E7F090909063E415159
:10016000215E7F09192946464949493101017F012C
:10017000013F4040403F1F2040201F3F4038403F4C
:100180006314081463070870080761514945430068
:100190007F41410002040810200041417F00040219
:1001A0000102044040404040000102040020545439
:1001B00054787F48444438384444442038444448C0
:1001C0007F3854545418087E0901020C5252523E92
:1001D0007F0804047800447D40002040443D007FB7
:1001E0001028440000417F40007C041804787C08FB
:1001F00004047838444444387C1414140808141453
:10020000187C7C080404084854545420043F44409B
:10021000203C4040207C1C2040201C3C4030403C86
:1002200044281028440C5050503C4464544C440022
:100230000836410000007F00000041360800100829
:10024000081008000000000011241FBECFEFD8E006
:10025000DEBFCDBF11E0A0E0B1E0ECE0F6E102C00E
:1002600005900D92AA33B107D9F723E0AAE3B1E0D4
:1002700001C01D92A536B207E1F70E9443010C941C
:10028000040B0C9400000E941D0678948091430397
:100290009091440364EF71E00E94F207892B39F5D5
:1002A0008091410390914203893D21E0920714F02F
:1002B00017BC1BC0893D21E092075CF41F9906C062
:1002C00020913E0330913F03232B19F08FEF87BD20
:1002D0000CC0893D91404CF483B180913E039091D4
:1002E0003F03892B11F48DE487BD0E94C2058091E4
:1002F00043039091440369ED73E00E94F207892B58
:1003000029F620914F03309150034CE3429FC001E6
:10031000439F900D112490933F0380933E030E94CE
:10032000C2051092500310924F03B0CF98B19D7F39
:1003300098B9662329F098B1986098B990E01FC0E9
:1003400098B1977F98B9FACF47E050E0491B51091F
:10035000282F30E002C0359527954A95E2F720FF17
:1003600004C028B1206128B903C028B12F7E28B964
:1003700028B1206228B928B12F7D28B99F5F983015
:1003800018F388B1826088B9089560E00E949601F0
:10039000089561E00E9496010895CF93DF9387B19D
:1003A000826087B987B1846087B987B1886087B96F
:1003B00087B1806187B987B1806287B988B184606D
:1003C00088B988B1826088B983EC99E00197F1F728
:1003D00000C0000088B18B7F88B98BE594E4019759
:1003E000F1F700C0000088B1846088B988B18D7FC2
:1003F00088B981E20E94C50183E10E94C50186E0BF
:100400000E94C50182EC0E94C50180E20E94C501E4
:1004100089E00E94C50180E80E94C50180E40E9435
:10042000C501C0E0D0E004C080E00E94C90121966F
:10043000C83F91E0D907C0F388E00E94C5018CE075
:100440000E94C501DF91CF91089580E80E94C50107
:1004500080E40E94C501109232031092330380E0C1
:1004600090E005C0FC01E65CFE4F10820196883FDB
:1004700021E09207B8F30895262F26952695269514
:1004800090E034E5239F800D911D1124442379F0E1
:10049000677021E030E002C0220F331F6A95E2F757
:1004A000FC01E65CFE4F8081282B20830895677055
:1004B00021E030E002C0220F331F6A95E2F7FC0111
:1004C000E65CFE4F20958081282320830895EF92DB
:1004D000FF920F931F93CF93DF93E82EF62E00E049
:1004E00045C02E2D30E020523109802F6F2D0E9403
:1004F000E607F901EE0FFF1FEE0FFF1FE20FF31FDC
:10050000E80FF11DE859FF4FE491812F0E94E607A3
:10051000F0E002C0F595E7958A95E2F7E0FF0AC0A2
:100520006091330380913203610F41E0800F0E949C
:100530003C0209C06091330380913203610F40E0B7
:10054000800F0E943C021F5F01C010E0212F30E0AD
:10055000CE01880F991F880F991F880F991F8C1B38
:100560009D0B281739070CF4BCCF0F5F202F30E00C
:10057000CF2DD0E0CE01880F991F880F991F8C0FC7
:100580009D1F281739070CF3E2E3F3E08F2D880F46
:10059000880F8F0D9081890F8F5F8083843570F075
:1005A00010923203E3E3F3E08F2D880F880F880F5A
:1005B000982F9F198081890F8F5F808380913303EB
:1005C000803320F01092320310923303DF91CF91E9
:1005D0001F910F91FF90EF9008951F93CF93DF939A
:1005E000EC01162F04C02196612F0E9467028881BA
:1005F0008111F9CFDF91CF911F910895809332033C
:10060000609333030895CF93DF9380E80E94C50180
:1006100080E40E94C501C0E0D0E007C0FE01E65CB6
:10062000FE4F80810E94C9012196C83F81E0D80712
:10063000A8F3DF91CF9108951A9B10C080913403E5
:1006400090913503893091054CF420915403211188
:1006500005C0019690933503809334031B9B10C013
:100660008091340390913503823091054CF02091B4
:100670005403211105C001979093350380933403EF
:1006800008951A9B1DC080915E0390915F0389308D
:100690009105B4F420915403211112C00196909356
:1006A0005F0380935E0340EA5FE0849F9001859F33
:1006B000300D949F300D112430935703209356032F
:1006C0001B9B1DC080915E0390915F03823091055A
:1006D000B4F020915403211112C0019790935F034D
:1006E00080935E0340EA5FE0849F9001859F300D18
:1006F000949F300D1124309357032093560308958F
:100700001A9B10C080914D0390914E038930910542
:100710004CF420915403211105C0019690934E038F
:1007200080934D031B9B10C080914D0390914E030D
:10073000823091054CF020915403211105C001979E
:1007400090934E0380934D03089564E184E10E94E9
:10075000FE0280915403811116C0809161038F9332
:10076000809160038F9380E091E09F938F938091BD
:100770004B031F928F930E941A080F900F900F90B7
:100780000F900F900F90809154038130B1F48091BD
:1007900063038F93809162038F9380E091E09F9336
:1007A0008F9380914B031F928F930E941A080F9092
:1007B0000F900F900F900F900F9080914B0361E07E
:1007C00090E00E94ED0264E189E10E94FE0261E096
:1007D00083E091E00E94ED0208956EE184E10E94C1
:1007E000FE0280915F038F9380915E038F9380E080
:1007F00091E09F938F93809155031F928F930E9456
:100800001A088091550361E090E00E94ED026EE1CC
:1008100089E10E94FE0261E083E091E00E94ED0226
:100820000F900F900F900F900F900F90089568E227
:1008300084E10E94FE0280915403811116C08091D0
:1008400046038F93809145038F9380E091E09F93BF
:100850008F93809138031F928F930E941A080F90F4
:100860000F900F900F900F900F9080915403813054
:10087000B1F4809152038F93809151038F9380E064
:1008800091E09F938F93809138031F928F930E94E2
:100890001A080F900F900F900F900F900F9080916B
:1008A000380361E090E00E94ED0268E289E10E9475
:1008B000FE0261E083E091E00E94ED02089560E0B5
:1008C00083E20E94FE0280915403813029F461E0AA
:1008D00085E091E00E94ED0280915403811105C0F2
:1008E00061E087E091E00E94ED0208956AE082E312
:1008F0000E94FE028091410390914203893D21E0D4
:10090000920734F061E089E091E00E94ED020895E1
:10091000893D21E0920774F41F9906C020913E039F
:1009200030913F03232B31F061E08DE091E00E9494
:10093000ED020895893D914064F483B180913E03B6
:1009400090913F03892B29F461E08DE091E00E94B2
:10095000ED02089580913F038F9380913E038F9322
:1009600080E091E09F938F9389E393E09F938F932F
:100970000E941A0868E288E30E94FE0261E089E3AF
:1009800093E00E94ED020F900F900F900F900F9048
:100990000F90089560E08DE20E94FE0261E080E128
:1009A00091E00E94ED026AE08DE20E94FE0261E0A9
:1009B00080E191E00E94ED0264E18DE20E94FE027E
:1009C00061E080E191E00E94ED026EE18DE20E9423
:1009D000FE0261E080E191E00E94ED0268E28DE2BA
:1009E0000E94FE0261E080E191E00E94ED0262E37C
:1009F0008DE20E94FE0261E080E191E00E94ED0242
:100A0000089580915303813099F028F08230E9F005
:100A1000833041F132C064E188E20E94FE0261E06D
:100A200082E191E00E94ED0281E080934C0325C0B9
:100A30006EE188E20E94FE0261E082E191E00E94A4
:100A4000ED0282E080934C0318C068E288E20E94C5
:100A5000FE0261E082E191E00E94ED0283E080937A
:100A60004C030BC060E088E20E94FE0261E082E17C
:100A700091E00E94ED0210924C0380915403882370
:100A800029F0813031F410926403089581E080935D
:100A90006403089580915403811128C06091340348
:100AA00070913503709361036093600340914D032F
:100AB00050914E03509346034093450328EE33E094
:100AC000629FF001639FF00D729FF00D1124F0936F
:100AD0003703E0933603429FB001439F700D529F4E
:100AE000700D112470935D0360935C03813009F0F5
:100AF00048C080913E0390913F036CE370E00E94F8
:100B0000F2076F5F7F4F70936303609362036A30F5
:100B1000710534F089E090E0909363038093620361
:100B200020916203309163038AE090E0821B930B73
:100B300090935203809351031816190634F081E004
:100B400090E0909352038093510388EE93E0289FA6
:100B5000A001299F500D389F500D11245093370349
:100B6000409336034091510350915203489F9001A6
:100B7000499F300D589F300D112430935D03209311
:100B80005C0308950E94250261E084E191E00E94E7
:100B9000ED026AE080E00E94FE0261E08AE191E0FD
:100BA0000E94ED0264E180E00E94FE0261E083E2C7
:100BB00091E00E94ED026EE180E00E94FE0261E0A1
:100BC00087E291E00E94ED0268E280E00E94FE026E
:100BD00061E08BE291E00E94ED0260E082E30E941E
:100BE000FE0261E08FE291E00E94ED020E944A0560
:100BF0000E94A5030E9417040E94CA046EE182E3CA
:100C00000E94FE0261E084E391E00E94ED0268E24E
:100C100082E30E94FE0261E081E291E00E94ED0227
:100C20000E945F040E94AA040E94ED030E947604C1
:100C30000E9401050E940303089592E094B915B83B
:100C40008EEF87B918B883EF8AB91BB883E08DBBE4
:100C50008BE08093690010928000E1E8F0E08081F1
:100C60008A608083109285001092840023EF31E027
:100C7000309389002093880090936F0080E48093E4
:100C80007C008FEE80937A0010927B008EE380933D
:100C90007E0083EA84BD85E085BD17BC1092C50047
:100CA0008FEF8093C40088E98093C10086E0809331
:100CB000C20010925B0310925A03109244031092E8
:100CC000430381E090E09093350380933403909345
:100CD0005F0380935E0390934E0380934D031092C5
:100CE000480310924703109259031092580328EEBC
:100CF00033E0309337032093360330935D03209322
:100D00005C0320EA3FE03093570320935603109290
:100D100053031092400321E320934B032093550388
:100D2000209338031092500310924F0310923F0308
:100D300010923E0390934A03809349031092540308
:100D4000809364030E94CD010E94C20508951A9900
:100D500002C01B9B06C080916403809354030E94D1
:100D6000C205089585B1826085B985B18D7F85B949
:100D70008091C00085FFFCCF81E08093C600809108
:100D8000C00085FFFCCF1092C60008951F920F92FD
:100D90000FB60F9211242F933F934F935F936F934E
:100DA0007F938F939F93AF93BF93EF93FF93809124
:100DB000540381111AC01C9B06C080914C03809380
:100DC00053030E94C20580915303811102C00E9407
:100DD0001C0380915303813011F40E9441038091E0
:100DE0005303823011F40E948003809153038330B7
:100DF00011F40E94A7060E94C205FF91EF91BF91D6
:100E0000AF919F918F917F916F915F914F913F91A2
:100E10002F910F900FBE0F901F9018951F920F9259
:100E20000FB60F9211248F939F9380917800909129
:100E3000790090934203809341039F918F910F908B
:100E40000FBE0F901F9018951F920F920FB60F9222
:100E500011248F939F934B9909C080914F039091D8
:100E6000500301969093500380934F039F918F916D
:100E70000F900FBE0F901F9018951F920F920FB6F4
:100E80000F9211242F933F934F935F936F937F9310
:100E90008F939F93AF93BF93EF93FF9380915803EA
:100EA0009091590301969093590380935803209190
:100EB0005A0330915B032F5F3F4F30935B032093C6
:100EC0005A03209136033091370382179307E4F0D9
:100ED00080914003811118C00E94B20610925903FC
:100EE0001092580380914703909148030196909384
:100EF000480380934703049739F481E080934003CB
:100F000010924803109247032091580330915903DF
:100F10008091560390915703281739076CF0809100
:100F20004003813049F40E94B20610925903109296
:100F3000580382E080934003209158033091590375
:100F400080915C0390915D0328173907DCF0809154
:100F500040038230B9F40E94B206109259031092F5
:100F6000580380914703909148030196909348035A
:100F700080934703049731F4109240031092480382
:100F80001092470380915A0390915B03049769F490
:100F9000809143039091440301969093440380937E
:100FA000430310925B0310925A03FF91EF91BF919C
:100FB000AF919F918F917F916F915F914F913F91F1
:100FC0002F910F900FBE0F901F901895991B79E0ED
:100FD00004C0991F961708F0961B881F7A95C9F7C9
:100FE0008095089597FB072E16F4009407D077FD9F
:100FF00009D00E94060807FC05D03EF49095819523
:101000009F4F0895709561957F4F0895AA1BBB1B54
:1010100051E107C0AA1FBB1FA617B70710F0A61BF8
:10102000B70B881F991F5A95A9F780959095BC0119
:10103000CD010895AEE0B0E0E0E2F8E00C94DB0A08
:101040000D891E8986E08C831A8309838FEF9FE7C1
:101050009E838D83AE01475E5F4F6F89788DCE0191
:1010600001960E943C08EF81F885E00FF11F108285
:101070002E96E4E00C94F70AABE0B0E0E2E4F8E08E
:101080000C94CD0A6C017B018A01FC011782168247
:10109000838181FFCCC1CE0101963C01F601938191
:1010A000F70193FD859193FF81917F01882309F4D6
:1010B000BAC1853239F493FD859193FF81917F0107
:1010C000853229F4B60190E00E94330AE7CF912CD3
:1010D000212C312CFFE1F315D8F08B3279F038F464
:1010E000803279F08332A1F4232D20611DC08D322E
:1010F00061F0803369F4232D216016C0832D826056
:10110000382EE32DE4603E2E2AC0F32DF8601DC07A
:1011100037FC2DC020ED280F2A3040F08E32B9F474
:1011200036FC81C1232D2064322E19C036FE06C044
:101130008AE0989E200D1124922E11C0EAE02E9E86
:10114000200D1124222EF32DF0623F2E08C08C3684
:1011500021F4832D8068382E02C0883641F4F701CF
:1011600093FD859193FF81917F018111B3CF982FDA
:101170009F7D9554933028F40C5F1F4F9FE3998314
:101180000DC0833631F0833771F0833509F059C0D3
:1011900021C0F801808189830E5F1F4F88248394CA
:1011A000912C530113C02801F2E04F0E511CF8019D
:1011B000A080B18036FE03C0692D70E002C06FEFE1
:1011C0007FEFC5010E94280A4C018201F32DFF77B1
:1011D0003F2E16C0280122E0420E511CF801A080CB
:1011E000B18036FE03C0692D70E002C06FEF7FEF63
:1011F000C5010E941D0A4C01F32DF0683F2E8201AB
:1012000033FC1BC0822D90E088169906B0F4B6011D
:1012100080E290E00E94330A2A94F4CFF50137FC73
:10122000859137FE81915F01B60190E00E94330AFB
:1012300021102A9421E0821A91088114910471F7F7
:10124000E8C0843611F0893641F5F80137FE07C051
:1012500060817181828193810C5F1F4F08C0608122
:101260007181072E000C880B990B0E5F1F4FF32D19
:10127000FF763F2E97FF09C09095809570956195F8
:101280007F4F8F4F9F4FF0683F2E2AE030E0A30141
:101290000E946F0A882E861845C0853731F4232DA9
:1012A0002F7EB22E2AE030E025C0932D997FB92EF3
:1012B0008F36C1F018F4883579F0B5C0803719F051
:1012C000883721F0B0C0E92FE061BE2EB4FE0DC01A
:1012D000FB2DF460BF2E09C034FE0AC0292F266002
:1012E000B22E06C028E030E005C020E130E002C0A8
:1012F00020E132E0F801B7FE07C060817181828190
:1013000093810C5F1F4F06C06081718180E090E087
:101310000E5F1F4FA3010E946F0A882E8618FB2DB7
:10132000FF773F2E36FE0DC0232D2E7FA22E89146F
:1013300058F434FE0BC032FC09C0832D8E7EA82EDB
:1013400005C0B82CA32C03C0B82C01C0B92CA4FE36
:101350000FC0FE01E80DF11D8081803321F49A2D2C
:10136000997EA92E09C0A2FE06C0B394B39404C00E
:101370008A2D867809F0B394A3FC11C0A0FE06C0A4
:10138000B21488F4280C922C9B180EC0B21460F48E
:10139000B60180E290E00E94330AB394F7CFB21412
:1013A00018F42B1802C0982C212CA4FE10C0B601F2
:1013B00080E390E00E94330AA2FE17C0A1FC03C0A4
:1013C00088E790E002C088E590E0B6010CC08A2D65
:1013D000867859F0A1FE02C08BE201C080E2A7FC32
:1013E0008DE2B60190E00E94330A891438F4B60108
:1013F00080E390E00E94330A9A94F7CF8A94F30135
:10140000E80DF11D8081B60190E00E94330A811041
:10141000F5CF222009F442CEB60180E290E00E948E
:10142000330A2A94F6CFF6018681978102C08FEFA6
:101430009FEF2B96E2E10C94E90AFC0105906150C4
:1014400070400110D8F7809590958E0F9F1F0895DA
:10145000FC016150704001900110D8F78095909583
:101460008E0F9F1F08950F931F93CF93DF93FB0160
:10147000238121FD03C08FEF9FEF2CC022FF16C0F8
:1014800046815781248135814217530744F4A08156
:10149000B1819D012F5F3F4F318320838C93268143
:1014A00037812F5F3F4F3783268314C08B01EC01B8
:1014B000FB010084F185E02D0995892BE1F6D80127
:1014C00016968D919C911797019617969C938E93E3
:1014D0001697CE01DF91CF911F910F910895FA01D8
:1014E000AA27283051F1203181F1E8946F936E7F63
:1014F0006E5F7F4F8F4F9F4FAF4FB1E03ED0B4E054
:101500003CD0670F781F891F9A1FA11D680F791F94
:101510008A1F911DA11D6A0F711D811D911DA11DA5
:1015200020D009F468943F912AE0269F11243019B5
:10153000305D3193DEF6CF010895462F4770405D50
:101540004193B3E00FD0C9F7F6CF462F4F70405DFF
:101550004A3318F0495D31FD4052419302D0A9F75A
:10156000EACFB4E0A6959795879577956795BA9554
:10157000C9F700976105710508959B01AC010A2E1A
:1015800006945795479537952795BA95C9F7620FF1
:10159000731F841F951FA01D08952F923F924F9295
:1015A0005F926F927F928F929F92AF92BF92CF92F3
:1015B000DF92EF92FF920F931F93CF93DF93CDB7FC
:1015C000DEB7CA1BDB0B0FB6F894DEBF0FBECDBF74
:1015D00009942A88398848885F846E847D848C8445
:1015E0009B84AA84B984C884DF80EE80FD800C814E
:1015F0001B81AA81B981CE0FD11D0FB6F894DEBF31
:0C1600000FBECDBFED010895F894FFCFA0
:10160C00256400730041004D004F4646004F4E00CC
:10161C007C003C004D4F444F3A003D3D3D3D3D3D2F
:10162C003D3D00542E4700542E5900542E5200209C
:0A163C004C757A00432F4D696E00D3
:0400000300000C3AB3
:00000001FF
